:020000040800F2
:10000000802A0020C102000825320008D3280008F9
:10001000992F00085D210008F14800080000000049
:10002000000000000000000000000000C53E0008C5
:100030006D23000800000000AD320008B13F000849
:10004000DB020008DB020008DB020008DB0200081C
:10005000DB020008DB020008DB020008DB0200080C
:10006000DB020008DB020008DB020008DB020008FC
:10007000DB020008DB020008DB020008DB020008EC
:10008000DB020008DB020008DB020008DB020008DC
:1000900051470008DB020008DB020008DB02000811
:1000A000DB020008DB020008DB020008DB020008BC
:1000B000DB0200089D400008DB020008DB020008AC
:1000C000DB020008DB020008DB020008DB0200089C
:1000D000DB0200088D450008DB020008DB02000897
:1000E000DB020008DB020008DB02000800F002F877
:1000F00000F0BCF80AA090E8000C82448344AAF106
:100100000107DA4501D100F0B1F8AFF2090EBAE803
:100110000F0013F0010F18BFFB1A43F0010318473B
:10012000ECDA00000CDB000010F8013B0A4413F08D
:10013000030408BF10F8014B1D1108BF10F8015B44
:10014000641E05D010F8016B641E01F8016BF9D133
:10015000002D15D010F8014B03F00C030C2BA1EB74
:1001600004040ABF10F8013BA4EB8314A4EB03249E
:1001700005F1010314F8016B5B1E01F8016BF9D561
:10018000914238BF10F8013BD1D3704700230024BF
:1001900000250026103A28BF78C1FBD8520728BF97
:1001A00030C148BF0B6070476E2900F07885702918
:1001B00000F01B8366290AF0E98765290AF0E687C3
:1001C00067290AF0E38761290AF0E28703681B0ABE
:1001D00028BF41F08001692900F0F681642900F010
:1001E000F381752900F0F0816F2900F0A882782949
:1001F00000F0E782E92900F0C385E42900F0C0851A
:10020000F52900F0BD85EF2900F0A582F82900F05E
:10021000E6820368DB0928BF41F08001632900F012
:100220007A85732900F07F85E32900F09D85F32905
:1002300000F0A285002070471FB59DE8030000F084
:100240009FFC00F0B6FB01F07BFA040000200021C7
:100250000AF0B0FE401C6060002000210AF0C0FEE1
:10026000E06000F05DFC1FBD10B510BD01F043FA69
:100270001146FFF7E1FF0AF02BFB01F017FB03B477
:10028000FFF7F2FF03BC06F0F6F900000B49D1F8C6
:1002900000C04A685CF8043B1068184442F8040B3C
:1002A0008C4528BFA1F1DC0C8A4228BFA1F1DC02F9
:1002B000C1F800C04A6020F00040704718240020B8
:1002C0000948804709480047FEE7FEE7FEE7FEE7EA
:1002D000FEE7FEE7FEE7FEE7FEE7FEE70448054926
:1002E000054A064B704700003D400008ED0000083D
:1002F00080240020802A00208026002080260020E4
:10030000704770B5064600F01FFC056806F10B004B
:1003100020F00704B4429CBF002070BD2B466A68E1
:10032000BAB11068A04210D304F1080188423CBF62
:100330005068586007D35168101941601168091B53
:10034000016058601460101D70BD13465268002A89
:10035000E7D12146284600F0FFFB0028DED170BD22
:1003600070B50446051F00F0EFFB0068002C14BFB9
:10037000446870BD002C18BFAC423CBF2046646886
:10038000F8D301680A18AA4218BF456003D12A6849
:1003900005461144016028684119A1421CBF6C60E8
:1003A00070BD6168696021680844286070BD53EAC7
:1003B000020C00F069802DE9F04B4FF00006002B95
:1003C0001FBFB3FA83F503FA05F424FA05F65E407D
:1003D00012BF1643B2FA82F502FA05F4C5F1200500
:1003E0001EBF22FA05FC44EA0C04203556EA044CF0
:1003F0004FEA144418BF641C4FF000084FF0000986
:10040000904271EB030C39D3002919BFB1FA81F77F
:1004100001FA07F6B0FA80F700FA07F6C7F12007ED
:100420001EBF20FA07FC46EA0C062037B6FBF4FC98
:10043000A7EB0507103F07F01F0BCBF120060CFAC6
:100440000BFB2CFA06F644BFB3460026202FA4BFB0
:100450005E464FF0000B5BEA060C08BF4FF0010B45
:1004600019EB0B09ABFB027C48EB0608C01B06FB33
:1004700002CC0BFB03CC71EB0C01C1E70B4602462F
:1004800041464846BDE8F08B13B54FF000004FF0F1
:100490000001AFF30080BDE81C4070471CB50C465E
:1004A000064B7B4469460090204600F012FC04464F
:1004B0000020694600F020FC20461CBD53080000C7
:1004C0000FB4044910B503AA029800F031FC10BC27
:1004D0005DF814FB240000200FB41CB5084B06AADD
:1004E0007B4469460090059800F0F3FB0446002029
:1004F000694600F001FC20461CBC5DF814FB0000BE
:100500001508000070B5044685690068C10601D56C
:10051000302600E02026C00707D070BDD4E90121B5
:1005200030469047206A401C20626D1EF6D570BD93
:1005300070B5044685690078C00707D170BDD4E95D
:10054000012120209047206A401C20626D1EF6D5B4
:1005500070BD09684A0501D540B27047C905FCD590
:1005600000B2704709684A0501D5C0B27047C90595
:10057000FCD580B2704770B50C460546012A05D0FF
:100580002878800600D5EA69002302E0012305E00F
:100590005B1C934202D2E05C0028F9D1A869E618FE
:1005A000C01AA861286A184428622846FFF7AAFFE3
:1005B00004E0D5E9012114F8010B9047B442F8D3C7
:1005C0002846FFF7B5FF70BD2DE9F041064600242F
:1005D00010687529314616A510D0FFF7BAFF00281C
:1005E00002DA404213A507E031688A0701D512A557
:1005F00002E0490704D511A5012401E0FFF7B2FF8D
:1006000000210A2206F1240709E0B0FBF2FCB0FB4E
:10061000F2F302FB1C00303078541846491C0028C5
:10062000F3D123462A463046BDE8F04100F0DEBA59
:10063000000000002D0000002B0000002000000042
:100640002DE9FF5F15468A460446DFF8AC80F84482
:100650000027D8E900103E46CDE9001010E03AF836
:1006600016106A4602A800F0C9FB411C07D0217889
:10067000890603D5E269391891420DD80744761CE2
:100680002078800602D5E069B84205DDAE42E6DB9F
:100690003AF816000028E2D1A069C01BA0612046EC
:1006A000FFF730FFD8E90010CDE90010002017E077
:1006B0003AF818106A4602A800F0A0FBB0F1FF3F1C
:1006C00081460BD000250DF1080B05E0D4E901218E
:1006D0001BF8050090476D1C4D45F7D308F101004C
:1006E000B0428046E4DB206A384420622046FFF7AF
:1006F0001FFFBDE8FF9F0000A2BC000030B4002136
:1007000000F1240408E002F00705D208303542EA7F
:100710004372DB086554491C52EA0305F3D10468AF
:10072000002310A2250707D5A40600D421B1C4696F
:1007300001230DA2641EC46130BC00F057BA10B58D
:10074000044621461068FFF70DFF02462046BDE82B
:1007500010400023D2E7D21D22F00701D1E9002387
:10076000CCE700000000000030000000F0B40D46AF
:100770000188090502D5214C7C4402E01F4C7C44D1
:100780000E34002100F1240608E002F00F071209E0
:10079000E75D42EA03721B097754491C52EA0307DA
:1007A000F3D102780023120704D5702D06D009B1C9
:1007B000022311342246F0BC00F018BA0123103491
:1007C000F8E770B504460D4621461068FFF7CAFEEB
:1007D000024629462046BDE870400023C6E7D21DE8
:1007E00022F00703D3E90023C0E70368126843F04F
:1007F000200303600823C3610023B7E780BB000028
:100800002DE9F05F894604464FF0000ADFF874B125
:10081000FB44C0F820A02046E1688847002874D037
:10082000252806D0D4E901219047206A401C206287
:10083000F1E700265F462046E16888472028054604
:1008400007DB312D05D2781910F8200C08B10643CA
:10085000F1E7B00701D526F00406C4F81CA0002774
:10086000C4F818A02A2D09D0284605F0FDFE38B39B
:1008700004EB8708303DC8F8185019E059F8041BFC
:10088000204604EB87029161E1688847012F054605
:1008900018D1E069002820DA26F020061DE0D8F8FB
:1008A000180000EB800005EB40003038C8F8180055
:1008B0002046E1688847054605F0D6FE0028EED1BF
:1008C000012F0AD02E2D08D12046E16888477F1CD1
:1008D0000546022F46F02006C4DBA069002803DA93
:1008E000404246F00106A061F00701D026F0100654
:1008F0006C2D0BD0682D09D04C2D39D06A2D35D0F8
:10090000742D35D07A2D33D016E038E0E1682F46CB
:1009100020468847B842054609D16C2F26D04FF4AF
:100920008060E168064320468847054604E06C2F56
:100930001AD04FF4807006430DB3A5F14100192879
:1009400002D8203546F400664A46294620462660ED
:100950004E46FFF729FC80B101280BD0F61D26F08A
:10096000070000F1080956E74020E4E78020D8E7B7
:100970000020D6E706F104094DE7284652E7206A31
:10098000BDE8F09F10BB00000B4910B5A1F17C023F
:100990000A4CC2E93712372106E000EB104342F857
:1009A0002130074B00FB03400B1EA1F10101F4DCD9
:1009B00010BD0120E8E70000B8230020E119D66649
:1009C000CD0D010040EA0103024630B59B0710D16E
:1009D0004FF0013400E008C208C91D1B9D4315EA11
:1009E000C41FF8D013F0FF0102F8011B0DD01B0A41
:1009F000F8E711F8013B002B02F8013B05D011F894
:100A0000013B002B02F8013BF3D130BD10B5431C74
:100A100002E010F8011B71B18107FAD14FF00132E9
:100A200002C88C1A8C4314EAC211F9D0C01A0A0603
:100A300003D0C01E10BDC01A10BD0A0401D0801E14
:100A400010BD0902FCD0401E10BD032A40F23080C8
:100A500010F0030C00F0158011F8013BBCF1020FFF
:100A6000624498BF11F801CB00F8013B38BF11F880
:100A7000013BA2F1040298BF00F801CB38BF00F897
:100A8000013B11F0030300F0D981083AC0F008805F
:100A900051F8043B083A51F804CBA0E80810F5E7F8
:100AA000121D5CBF51F8043B40F8043BAFF30080DB
:100AB000D20724BF11F8013B11F801CB48BF11F850
:100AC000012B24BF00F8013B00F801CB48BF00F820
:100AD000012B70474FF000020429C0F0128010F083
:100AE000030C00F0DF81CCF1040CBCF1020F18BF45
:100AF00000F8012BA8BF20F8022BA1EB0C0100F09D
:100B0000D1B95FEAC17C24BF00F8012B00F8012BAA
:100B100048BF00F8012B70477047704770470000CE
:100B200070B5064C7C44064D7D4403E020682044AB
:100B30008047241DAC42F9D170BD000030D20000C6
:100B400030D2000070470000004870472824002081
:100B5000704770477047704738B504460A46002012
:100B60006946AFF30080002808BF38BD02460099EF
:100B7000204600F0C9F9012038BD012000F0B4BDC5
:100B8000F8B5AFF30080054600200C46102000BFEA
:100B90000646A819A0420DD9324669460020AFF397
:100BA0000080070008BF00F09FFD0098A04218BF1A
:100BB0000546C419FFF7C8FF05600746F01D20F081
:100BC00007004619284600F00AF8B44208BFF8BDED
:100BD000A21B31463868BDE8F84000F095B9002105
:100BE0000160C0E901107047102070472DE9F047FF
:100BF0000D4699469246044600F12408016888068D
:100C000004D5E06921F01001216000E00120A84234
:100C100001DD471B00E00027A1697A1902EB0900FA
:100C2000081AA0612078C00602D42046FFF76AFCAB
:100C3000002608E0D4E901211AF806009047206A4E
:100C4000401C761C20624E45F4DB2078C0060AD595
:100C50002046FFF757FC06E0D4E9012130209047F9
:100C6000206A401C2062381EA7F10107F4DC07E06F
:100C7000D4E9012118F805009047206A401C206241
:100C8000281EA5F10105F3DC2046FFF751FC207872
:100C9000000602D50220BDE8F0870120FBE71168BD
:100CA0000268006A530501D508700AE0D30501D532
:100CB000088006E0130603D5C217C1E9000200E070
:100CC000086001207047000001694A1C0261087831
:100CD000704700B58FB0CDE901310021059105497C
:100CE0007944CDE9031011466846FFF789FD0FB03E
:100CF00000BD0000E5FFFFFF0A6802F8010B0A6073
:100D0000704710B5436913B1AFF3008001E0FFF7FE
:100D100032FC012010BD127800F124010A7000227B
:100D20004A700122EDE711684FF0FF32E9E7000059
:100D3000074B70B50D467B44FFF7CBFF04462846B2
:100D400000F0CEFC10B14FF0FF3070BD204670BDFA
:100D5000EB7E000010B5436913B1AFF3008001E0F2
:100D6000FFF76EFC012010BD128800F1240182847F
:100D70000022C2840122EDE711684FF0FF32E9E75B
:100D80002DE9F0418046D21D22F007020025D2E96C
:100D90000002F52915A614D0011E72F1000106DA31
:100DA0000023D0EB030063EB020211A608E0D8F8A1
:100DB00000108B0701D50FA602E0490701D50EA64A
:100DC00001251146002408F1240704E000F0B6F8DC
:100DD00030323A55641C50EA0102F7D12B463246B4
:100DE00021464046BDE8F041FFF700BF000000008B
:100DF0002D0000002B0000002000000070B51646FA
:100E00000C46054600F078F8036893F801010128C4
:100E100006D0FF2C0FD8185D68B101202C7070BD72
:100E2000D3F807013246214603F20713034428464C
:100E3000BDE8704018474FF0FF3070BD10B5203A44
:100E4000C0F00B80B1E81850203AA0E81850B1E883
:100E50001850A0E81850BFF4F5AF5FEA027C24BF39
:100E6000B1E81850A0E8185044BF18C918C0BDE830
:100E700010405FEA827C24BF51F8043B40F8043BF9
:100E800008BF7047D20728BF31F8023B48BF11F8AE
:100E9000012B28BF20F8023B48BF00F8012B704708
:100EA0004FF0000200B5134694469646203922BF03
:100EB000A0E80C50A0E80C50B1F12001BFF4F7AF4E
:100EC000090728BFA0E80C5048BF0CC05DF804EB30
:100ED000890028BF40F8042B08BF704748BF20F89E
:100EE000022B11F0804F18BF00F8012B7047000053
:100EF000004870472024002010B500F021FC001DA0
:100F000010BD00BFB1A00000034640688C46002819
:100F100018BF88423CBF03464068F8D3186818449D
:100F2000884207D00CF1030020F00700001D411A91
:100F3000521A0146081D0A60FFF712BA30B5B0F127
:100F40000A024FEA900E71F100034EEA817EB0EB87
:100F50000E0061EB91014FEA101E4EEA017E10EB8C
:100F60000E0041EB11114FEA102E4EEA016E10EB0C
:100F70000E0041EB11214FEA104E4EEA014E10EBEC
:100F80000E0041EB1141401841F100014FEAD00041
:100F900040EA41704FEAD10110EB80054FEA81042D
:100FA00044EA907444EB01046D1944EB0404521BB1
:100FB000A3414FF0000348BF0A3200D530BD401CAA
:100FC00041F1000130BD70472DE9FF4F0C461E4630
:100FD0004FF0FF378BB0D2E90001DDF860800A9056
:100FE0008A46C1F30A5505B93D46002108464FF02F
:100FF0000000BAF1000F00F4400005DA00EB8000B9
:101000004FF4400101EA50004FEA9059B9F1010F45
:1010100000DDB9460A9850EA4A000ED044F6105056
:10102000A5F2FF3545432F14B8F1000F1ED07542CD
:10103000291E1EDDC9F100021CE0B8F1010F4FF0BE
:10104000000001D0302103E0F24305E02154401CB0
:10105000B042FBDB30460022002121540B99C1F83D
:101060000880C1E900200FB0BDE8F08FBD1B6D1CEA
:10107000DEE74A4600DA694206A800F0A5FB06ABA7
:1010800093E8070003AB83E8070050460A9900F095
:101090009DFC8DE80700A0F500501F3800900398D4
:1010A000002D0ADD42F21F014A460844002303A92D
:1010B0000390684600F006FF09E0A0F500504A469C
:1010C0001F38002303A90390684600F010FF8DE845
:1010D00007000004000C03D04FF0FF30410800E08F
:1010E0001046B8F1000F03D00022009215461EE012
:1010F000751E05D4FFF722FF303262556D1EF9D5FB
:10110000B3460122084302D000227F1C04E020786D
:10111000302801D100227F1E002A099784D01DE0CB
:10112000112D07DAFFF70AFF303262556D1C50EAC5
:101130000102F5D1084302D00098C8B10EE00021A9
:10114000681E05E0235C625C63542254401E491C07
:101150008142F7DBAB46A81B401E0990002004F833
:101160000B000B98099AC0F80880C0E9002B7AE7B9
:1011700011264FF0000857E72DE9F04F8846044646
:10118000D21D22F0070191B0D1E90001CDE90A0199
:1011900004F0D4FD02460B98C00F01D02D2007E0CB
:1011A0002068810701D52B2002E0202101EAC00040
:1011B000032A099001D0072A05DB03464146204651
:1011C00000F0C2FA0BE12078800601D5E06900E06A
:1011D0000620B8F1650F814606D0B8F1660F18D029
:1011E000B8F1670F70D131E00020B9F1110F009014
:1011F00001DB112301E009F101030AAA01A90CA8EE
:10120000FFF7E2FEDDE90C70002609F101058346D7
:1012100047E001204B4600904FF000470AAA01A981
:101220000CA8FFF7D1FEDDE90DB00C995D46002654
:1012300010B909F101000D18B9EB050003D4C0F194
:10124000FF3609F10105A5EB09002BE0B9F1010F0B
:1012500001DA4FF001090020B9F1110F0090484662
:1012600001DD112300E003460AAA01A90CA8FFF73B
:10127000ABFEDDE90C704D46002683462078000762
:101280000AD4AB4500DA5D4601A8012D04DD411901
:1012900011F8011C302907D04F4502DA17F1040F6D
:1012A00004DA012082460FE06D1EEEE7002F02DC1B
:1012B000ED1B3E4403E0781CA84200DD7D1CB81BFA
:1012C00000F1010A4FF000472078000703D4AA4537
:1012D00001DB4FF0FF3A0021B7F1004F0DF1430859
:1012E0008DF8431024D002202B23002F01DA7F42F7
:1012F0002D230A21021EA0F1010000DC5FB197FB43
:10130000F1FC97FBF1F201FB1C7C17460CF1300C51
:1013100008F801CDEEE7A8F1010003702188090566
:1013200001D5452100E06521A0F1010800F8011C6C
:1013300009980FA9A1EB0807FF1D00B10120411971
:1013400001EBEA70A1693844081A401EA0612078B8
:10135000C00602D42046FFF7D5F8099828B1D4E991
:1013600001219047206A401C20622078C00622D5C7
:101370002046FFF7C7F81EE0002E04DBB34502DD70
:1013800001A8805D00E03020D4E901219047206A67
:10139000401C2062761CAAF101005FEA000A0AD113
:1013A00000F0CEF9C0680168405CD4E901219047A3
:1013B000206A401C2062281EA5F10105DCDC07E044
:1013C000D4E9012118F8010B9047206A401C2062E3
:1013D000381EA7F10107F3DC2046FFF7A9F8032028
:1013E00011B041E62DE9F04F04460D46D21D22F022
:1013F000070089B0D0E900974846394604F09EFCC2
:101400000246F80F01D02D2307E02068810701D59F
:101410002B2302E0202101EAC0038DF820300BB11C
:10142000012000E00020032A824601D0072A04DBC5
:101430002946204600F088F93FE12078800601D453
:101440000D2500E0E569C7F30A560D2D49DA0021A4
:101450004FEA175B08464FF00000002F00F44000F1
:1014600007DA00EB80004FF4400100EBD07001EA96
:1014700060008115012901DD4FF0FF3100224FEAA4
:10148000850CBCF1180F06D31346ACF118004FF0D1
:101490008052C24003E04FF4801323FA0CF30CF1A6
:1014A0000C0CBCF1200F04D3ACF1200C09FA0CF0A9
:1014B00001E007FA0CF000294FF0004801DD18B9EF
:1014C0000FE00ED140450CD319EB02095F4121B961
:1014D000404502D19F4329EA0209BBEB175F00D0C8
:1014E000761C2088000502D57B48784402E07A48C3
:1014F0007844193808AA302302F80A30037C0AF12C
:101500000101002E0AF1020A53546A4602DC4FF030
:10151000300101E04FF031014FF001088DF800106B
:1015200002D0A6F2FF3603E059EA470100D06B4E25
:10153000002D02DC2178090704D54FF002082E2186
:101540008DF80110C44600210BE0C7F303433F01AF
:10155000C35C491C6D1E02F80830052908F101081A
:1015600001DA002DF1DC00210CE000EB1973491CBD
:101570001B786D1E082902F808304FEA091908F196
:10158000010801DA002DF0DC21688B0602D516E097
:10159000A8F10108E04505DD02EB080313F8013C62
:1015A000302BF5D0B8F1000F09DD02EB080313F87A
:1015B000013C2E2B03D1090701D4A8F10108002D0D
:1015C00005DD3E2102F808106D1E08F10108407C7F
:1015D000002E02F8080008F1010804DA2D207642F6
:1015E00002F8080002E02B2002F808000A214FF45C
:1015F0007A70864208F101080BDB96FBF0F330337A
:1016000002F8083096FBF0F308F1010800FB1366BE
:1016100001E0642E0CDB642096FBF0F3303302F81B
:10162000083096FBF0F308F1010800FB136601E0B7
:101630000A2E06DB96FBF1F0303002F8080008F1C4
:10164000010896FBF1F001FB1060303002F8080051
:10165000A16908F1010808EB050202EB0A00081A6B
:10166000A0612078C00602D42046FEF74BFF216A15
:1016700008AE01EB0A00206204E0D4E9012116F86B
:10168000010B9047BAF1010AF7D22078C00602D5C3
:101690002046FEF737FF6E4609E016F8010B3E289C
:1016A0000FD0D4E901219047206A401C2062B8F194
:1016B0000108F2D22046FEF73BFF09B00320BDE847
:1016C000F08F206A2844206203E0D4E90121302011
:1016D00090476D1EEBD3F8E75AAE000002FCFFFF07
:1016E000007B00F08000704710B500F0EDF8BDE819
:1016F000104000F0E4B87546FFF7FAFBAE4605006F
:101700006946534620F00700854618B020B5FEF71D
:10171000E5FDBDE820404FF000064FF000074FF018
:1017200000084FF0000B21F00701AC46ACE8C009FF
:10173000ACE8C009ACE8C009ACE8C0098D46704708
:1017400000487047402400202DE9F0411F46044620
:1017500003260168072A01F4006004DB08B116A51E
:1017600005E016A503E008B115A500E015A521F0D8
:1017700010002060A069C01EA0610FB1401EA061D2
:101780002046FEF7BFFE4FB1D4E90121384690470D
:10179000206A401C2062C01C206206E0206AFAE732
:1017A000D4E9012115F8010B9047761EF8D22046A6
:1017B000FEF7BEFEBDE8F0814E414E006E616E0048
:1017C000494E4600696E66002DE9F047814616468F
:1017D0008AB0354878440DC88DE80D003248784409
:1017E000801C03AC0DC884E80D0041F69B30084412
:1017F000372190FBF1F290FBF1F5A5F1800501FB9B
:1018000012041B3C02D56442012000E00020DFF8F6
:1018100098A080460027FA44AAF1BE0A0EE0E0072D
:101820000AD03246684607EB470101230AEB8101E3
:1018300000F05DFB8DE8070064107F1C002CEED1EA
:10184000194F7F44AE3F19E0E80715D007EB0410AD
:101850000DF1180A90E80E008AE80E00C068F04208
:1018600001D1981908903246012306A903A800F077
:101870003EFB03AB83E807006D10641C002DE3D131
:101880004FF0010332466946B8F1000F03A802D0B9
:1018900000F018FB01E000F02AFBC9E90001C9F8DB
:1018A00008200AB0BDE8F08700AC000010B504467F
:1018B000AFF300802046BDE81040FEF7E0BC0028F2
:1018C00001D004F0D8BE704710B5012805D0002122
:1018D00003A000F021F8012010BD09A1F8E70000E5
:1018E00053494752544D454D3A204F7574206F6609
:1018F0002068656170206D656D6F72790000000071
:101900003A2048656170206D656D6F727920636F54
:10191000727275707465640070B505460C460A20D5
:1019200000E06D1C04F0A9FE35B128780028F8D13C
:1019300002E0641C04F0A1FE14B120780028F8D164
:10194000BDE870400A2004F098BE00004FF0013C52
:1019500050F8042B51F8043B9A4221D1A2EB0C031E
:10196000934313EACC1317D150F8042B51F8043BDE
:101970009A4215D1A2EB0C03934313EACC130BD17B
:1019800050F8042B51F8043B9A4209D1A2EB0C0306
:10199000934313EACC13DBD04FF00000704700BF35
:1019A000D01A01BAB1FA81F101F0180122FA01F05E
:1019B000CB40C1F12001DBB2C0B2C01A2CFA01F356
:1019C000D11A914311EAC311E6D170475FEA400C86
:1019D00008BF91F0000F4FEA8C234FEAC12243EA7F
:1019E00051514FEA1C5018BF00F5F0404FEA30004B
:1019F00018BF41F000415FEA6C5C00F02980BCF147
:101A0000FF3F08BF40F080407047130C06BF120430
:101A10004FF0100C4FF0000C130E04BF12020CF12B
:101A2000080C130F04BF12010CF1040C930F04BF38
:101A300092000CF1020CD30F04BF52000CF1010C08
:101A400011464FF00002A0F11F00A0EB0C00704700
:101A500011F0004F08BF704731F000413FF4D5AF9F
:101A60000B0C06BF09044FF0100C4FF0000C0B0ECE
:101A700004BF09020CF1080C0B0F04BF09010CF1A3
:101A8000040C8B0F04BF89000CF1020CCB0F04BFB8
:101A900049000CF1010CCCF12003A0EB0C0022FA60
:101AA00003F302FA0CF241EA030100F1010070476E
:101AB00020F07F4C80EA030023F07F47ACEB070364
:101AC00003F57C5300F0004003F1FF032DE980494A
:101AD0004FEA154B09B44FEA144325EA0B4E24EAAA
:101AE00003480FF2042606EB132749083E785FEA05
:101AF000320203FB0667C7F5000707FB06F64FEA4D
:101B000054374FEAD64606F1020607FB066CCCF1C5
:101B1000005C4FEA1C472CEA074C07FB06F40CFB61
:101B200006F504EB15464FEA961634BF00204FF039
:101B300000404FEAD13706FB07FC4FEA1C4C0CFB78
:101B40000BF7D21B03FB0CF761EB07010CFB0EF745
:101B5000B0EB074072EB17420CFB08F734BFA2EB67
:101B60000742B2EB074261EB17414FEA0C444FEAE0
:101B7000910706FB07FC4FEA1C4C0CFB0BF7B0EB84
:101B8000C74072EB573203FB0CF734BFA2EBC742DE
:101B9000B2EBC74261EB57310CFB0EF7B0EBC7005D
:101BA00072EB57720CFB08F734BFA2EBC702B2EB23
:101BB000C70261EB5771039F4FEA816141EA9211BD
:101BC00004EBCC044FEAD1374FEA826206FB07FCF4
:101BD00042EA90124FEA80604FEA1C4C0CFB0BF774
:101BE000D21B03FB0CF761EB07010CFB0EF7B0EB0C
:101BF000074072EB17420CFB08F734BFA2EB074219
:101C0000B2EB074261EB17414FEA8C554FEA91075F
:101C100004EB9C2406FB07FC4FEA1C4C0CFB0BF767
:101C2000B0EBC74072EB573203FB0CF734BFA2EBAB
:101C3000C742B2EBC74261EB57310CFB0EF7B0EB7A
:101C4000C70072EB57720CFB08F734BFA2EBC70258
:101C5000B2EBC70261EB577115EB4C254FEA81617E
:101C600041EA92114FEA82624FEAD13742EA90127A
:101C700006FB07FC44F100044FEA80604FEA1C4C6D
:101C80000CFB0BF7D21B03FB0CF761EB07010CFB02
:101C90000EF7B0EB074072EB17420CFB08F734BFAE
:101CA000A2EB0742B2EB074261EB174115EB1C15A3
:101CB0004FEA813141EA92414FEA823242EA904250
:101CC0004FEA80304FEA0C7644F1000448EA0343BF
:101CD0004EEA0B484FF0000EB2EB080C71EB030715
:101CE00024BF624639464EEB0E0E4FF0000B001833
:101CF000524149414BEB0B0BB2EB080C71EB030764
:101D00007BF1000B24BF624639464EEB0E0E4FF0BE
:101D1000000B0018524149414BEB0B0BB2EB080C86
:101D200071EB03077BF1000B24BF624639464EEB93
:101D30000E0E51EA020718BF46F0010616EB0E76AA
:101D400055F1000254F1000103D5BDE88901BDE859
:101D50000088BDE88901BDE80048B619524141EB51
:101D60000101A3F10103704780807F7E7D7C7B7A37
:101D70007978777676757473727171706F6E6E6D37
:101D80006C6C6B6A6A6968686766666564646363DD
:101D900062616160605F5F5E5E5D5D5C5C5B5B5A63
:101DA0005A595958585757565655555554545353D0
:101DB00052525251515050504F4F4F4E4E4D4D4D2B
:101DC0004C4C4C4B4B4B4A4A4A4949494848484776
:101DD00047474746464645454544444444434343B4
:101DE0004342424242414141002B9C4630D477005D
:101DF0002BD01CB54FEA370703B44FF010004FF05B
:101E00001001BAF1000F06D0BCF1000FDCBF40F0AA
:101E1000080040F008014FF000000FBCBDE8104082
:101E20000BF1010BBBF1010F08BF5FEA170722BFDF
:101E300012F1010211F101014FF0004143F10003E1
:101E400000F0004043EA00007047F9D35708D0E79C
:101E500046EA064613F1400F4FEA16461FDD13F11E
:101E6000200FDFBF16430A46002120335B42BED05D
:101E7000C3F1200746EA064602FA07F74FEA16467C
:101E800046EA0706C3F1200722FA03F201FA07F730
:101E900021FA03F14FF0000342EA0702A7E746EAFE
:101EA000020646EA06464FEA164646EA0106BCBF67
:101EB00046EA0646360C4FF000034FF000024FF0A2
:101EC000000194E72DE9804C9A46934670B491E85E
:101ED000380007C831EA400C48BF34EA430C03D548
:101EE000FFF7E6FDFFF780FFF0BCBDE8008C2DE9B1
:101EF000804C9A46934670B491E8380007C810F0B9
:101F0000804F08BF13F0804F03D100F005F8FFF7B2
:101F10006BFFF0BCBDE8008C20F07F4780EA030037
:101F200023F07F4C07EB0C03A3F57C5300F000403B
:101F3000A3F1FE0392F0000F00F0B38095F0000FC4
:101F400000F077802DE901494FEA11404FEA14462D
:101F500021EA004800FB06FC24EA064708FB06F6D7
:101F600007FB08F800FB07F718EB06484CEB164C8C
:101F70004FEA124B18EB07484FEA15464CEB174057
:101F800022EA0B4E0BFB06FC25EA06470EFB06F683
:101F900007FB0EFE0BFB07F71EEB064E4CEB164C39
:101FA0004FF000061EEB074E4CEB174B18EB0B08DF
:101FB00040F1000018EB0E0B58EB000840F1000058
:101FC0008F1A4FF000013CBFC943661B14BFB5EB2D
:101FD000040C00213CBFC943F61B4FEA17444EEAEC
:101FE0008E0E27EA04454FEA1C4704FB07622CEAE1
:101FF000074C05FB07F70CFB05F604FB0CFC16EB86
:10200000074642EB174216EB0C4642EB1C421BEB19
:10201000060658EB0202414146EA9E0601D5BDE89C
:102020000189B619524141EB0101A3F10103BDE859
:1020300001894FEA14454FEA114724EA054621EA8F
:10204000074C05FB07F406FB07F70CFB06F105FB45
:102050000CFC11EB074144EB17444FEA124711EB1C
:102060000C4144EB1C4422EA074C05FB07F206FB3B
:1020700007F70CFB06F605FB0CFC16EB074642EBDC
:10208000174216EB0C4642EB1C456A1854F100014E
:1020900048BF7047B619524141EB0101A3F101035A
:1020A000704795F0000F37D04FEA11424FEA1447BE
:1020B00021EA024624EA074C02FB07F106FB07F778
:1020C0000CFB06F402FB0CFC14EB074441EB17413C
:1020D0004FEA154714EB0C4441EB1C4125EA074C31
:1020E00002FB07F506FB07F70CFB06F602FB0CFCF0
:1020F00016EB074645EB174516EB0C4645EB1C4225
:10210000121951F1000148BF7047B619524141EB15
:102110000101A3F1010370474FEA14454FEA11474B
:1021200024EA054621EA074C05FB07F106FB07F701
:102130000CFB06F24FF0000605FB0CFC12EB07420D
:1021400041EB174112EB0C4251EB1C4148BF704769
:10215000921841EB0101A3F10103704700BFFEE7B4
:10216000014609B909487047012901D10020FAE761
:10217000022901D10020F6E7032901D10020F2E76E
:10218000042901D10020EEE70020ECE74C0D0020EF
:1021900008B525208DF8000000208DF802000120F0
:1021A0008DF80300684601F03FF808BD00F080514B
:1021B00011B10349086001E002494860704700001E
:1021C000040402400000024021B1026842F0010212
:1021D000026004E002684FF6FE731A400260704726
:1021E00001684FF6FE7211400160002101604160FC
:1021F0008160C1604B49884208D14A490839496821
:1022000041F00F01474A083A51608AE045491431CC
:10221000884208D143490839496841F0F001414AF0
:10222000083A51607DE03F492831884208D13D4954
:102230000839496841F470613A4A083A516070E0DF
:1022400038493C31884208D136490839496841F457
:102250007041344A083A516063E032495031884253
:1022600008D130490839496841F470212D4A083AAB
:10227000516056E02B496431884208D12949083918
:10228000496841F47001274A083A516049E02549FC
:102290007831884208D123490839496841F0706192
:1022A000204A083A51603CE01F49884206D1011F8C
:1022B000096841F00F01021F116032E01A49143120
:1022C000884208D11849091F096841F0F001164AEF
:1022D000121F116025E014492831884208D11249A3
:1022E000091F096841F470610F4A121F116018E05C
:1022F0000D493C31884208D10B49091F096841F456
:102300007041094A121F11600BE0074950318842A1
:1023100007D10549091F096841F47021024A121FBB
:1023200011607047080002400804024010B5002206
:10233000026847F6F0739A430C6A8B6823430C6972
:1023400023434C6923438C692343CC6923434C6A60
:1023500023438C6A23431A430260CB6843600B68B3
:1023600083604B68C36010BD4160704770470000D8
:1023700008B54548C07E401C4349C8760846C07E23
:1023800015280EDB0CE04FF6FF7005F041FF002131
:102390004FF4784006F020F83621132005F0FCFFBA
:1023A000F1E7002005F034FF40F2CF1080231A46F9
:1023B00000210090084605F0A8FE40F2CF137F22CE
:1023C0000B21002005F06DFE00214FF6FF7006F096
:1023D00003F80321042005F0DFFF2CA005F046FFE1
:1023E0000321402005F0D8FF2AA005F03FFF00217F
:1023F0004FF4784005F0F0FF0321282005F0CCFFD2
:102400002148C17E25A005F041FF0321642005F08D
:10241000C3FF1D48817E21A005F038FF00214FF445
:10242000FC6005F0D9FF2E21132005F0B5FF1CA09C
:1024300005F01CFF3E21072005F0AEFF1CA005F0B3
:1024400015FF03E004F0D0FB1E4908701D4800781A
:10245000012803D01B4800780428F3D119480078DC
:10246000012802D100F082FA0CE016480078042816
:1024700008D1002014490870042014490870002075
:102480001049087008BD0000202300204C657665C7
:102490006C3A000053636F72653A000025640000D7
:1024A000434F4F4C21204C4556454C205550210060
:1024B0005052455353204F4B20544F2052455354B4
:1024C000415254003F0C0020400C00203E0C0020E4
:1024D00008B5002005F09CFE40F2CF1080231A467C
:1024E00000210090084605F010FE40F2CF137F2235
:1024F0000B21002005F0D5FD00214FF6FF7005F0FF
:102500006BFF0321042005F047FF2DA005F0AEFE70
:102510000321402005F040FF2BA005F0A7FE00217D
:102520004FF4784005F058FF0321282005F034FFD0
:102530002748C17E27A005F0A9FE0321642005F0ED
:102540002BFF2348817E23A005F0A0FE00214FF63B
:10255000FF7005F041FF2E21222005F01DFF1EA077
:1025600005F084FE3E21072005F016FF1DA005F0B2
:102570007DFE00201649C876887603E004F034FB1F
:102580001D4908701C480078012803D01A480078BB
:102590000428F3D118480078012802D100F0E6F9A8
:1025A0000CE015480078042808D100201349087071
:1025B00004201349087000200F49087008BD00006E
:1025C0004C6576656C3A000053636F72653A0000A3
:1025D000202300202564000047414D45204F5645EB
:1025E000522100005052455353204F4B20544F204E
:1025F00052455354415254003F0C0020400C0020DF
:102600003E0C00200149C8607047000000200240D5
:1026100030B5044604254FF4302000F06FF805462D
:10262000042D17D10C48006940F002000A490861E6
:1026300008464461006940F0400008614FF43020D2
:1026400000F05CF805460448006941F6FD71084059
:1026500001490861284630BD0020024004200B4992
:10266000C96801F0010109B101200EE00749C968FC
:1026700001F0040109B1022007E00449C96801F032
:10268000100109B1032000E004207047002002403F
:102690000348006940F0800001490861704700006C
:1026A0000020024070B504460D460426F00200F0FA
:1026B00025F80646042E11D10948006940F00100B2
:1026C000074908612580F00200F018F80646044822
:1026D000006941F6FE71084001490861304670BD4D
:1026E00000200240024803494860034848607047A0
:1026F0002301674500200240AB89EFCD00B50246BB
:102700000423FFF7ABFF034603E0FFF7A7FF0346F1
:10271000521E012B01D1002AF7D102B90523184618
:1027200000BD2DE9F04102460025002600200023CF
:102730000024002791F803C00CF00F0591F803C0A6
:102740000CF0100CBCF1000F03D091F802C04CEA61
:10275000050591F800C0BCF1000F31D014680020CD
:102760002BE04FF0010C0CFA00F3B1F800C00CEABA
:1027700003069E4220D183004FF00F0C0CFA03F7A2
:10278000BC4305FA03FC4CEA040491F803C0BCF115
:10279000280F06D14FF0010C0CFA00FCC2F814C04F
:1027A0000AE091F803C0BCF1480F05D14FF0010CCD
:1027B0000CFA00FCC2F810C0401C0828D1D31460E9
:1027C000B1F800C0BCF1FF0F34DD546800202EE0EA
:1027D00000F1080C4FF0010808FA0CF3B1F800C042
:1027E0000CEA03069E4221D183004FF00F0C0CFA35
:1027F00003F7BC4305FA03FC4CEA040491F803C058
:10280000BCF1280F05D100F1080C08FA0CF8C2F849
:10281000148091F803C0BCF1480F07D100F1080CF7
:102820004FF0010808FA0CF8C2F81080401C082884
:10283000CED35460BDE8F081F0B50A4600230024F1
:102840000021002500F00046B6F1004F02D11D4ED8
:10285000F16901E01B4E7168C0F3034583B200F4D7
:102860004016B6F5401F08D121F07061154E76680C
:1028700026F07066134F7E6012E000F48016B6F505
:10288000801F06D1032606FA05F4A14341F07061CA
:1028900006E0460D360103FA06F6B14341F07061D9
:1028A00022B1460D360103FA06F6314300F0004628
:1028B000B6F1004F02D1034EF16101E0014E7160AB
:1028C000F0BD0000000001400AB1016100E041617B
:1028D000704700BFFEE7000000B585B0012105206C
:1028E00000F016FD0121880300F012FD4FF4007086
:1028F000ADF8100018208DF8130003208DF8120099
:1029000004A91848FFF70DFF4FF48060ADF81000E0
:1029100004208DF8130004A91248FFF702FF4FF4BA
:10292000E13000900020ADF80400ADF80600ADF8ED
:102930000800ADF80C000C20ADF80A0069460A4802
:1029400001F090FE012240F22551074801F065FE9A
:102950000121054801F02BFE4021034801F01EFE35
:1029600005B000BD000801400038014038B5002026
:1029700005F04EFC40F2CF1080231A460021009053
:10298000084605F0C2FB40F2CF137F220B21002046
:1029900005F087FB012005F029FD0321042005F047
:1029A000FBFC00214FF6FF7005F016FD29A005F095
:1029B0005DFC0321402005F0EFFC28A005F056FC4B
:1029C00000214FF4784005F007FD0321282005F091
:1029D000E3FC2448C17E24A005F058FC03216420B8
:1029E00005F0DAFC1F48817E1FA005F04FFC022095
:1029F0001C49087600204876887601201B4988709B
:102A000000201B49087016201A490870002409E0AC
:102A100004F10A00134908550C2112480C300155E5
:102A2000601CC4B20F48007EA042F1DC002408E024
:102A30000C4A0C32115D0C3A105D01F091FD601CE6
:102A4000C4B20848007EA042F2DC01200A490870A6
:102A500038BD00004C6576656C3A000053636F72B8
:102A6000653A00002023002025640000410C00206E
:102A70003F0C00203E0C0020400C00200448006861
:102A800000F0020008B9012070470020FCE70000B8
:102A90000808014010B500F009F820B100F012F864
:102AA00008B1012010BD0020FCE7000004480068C8
:102AB00000F0010008B9012070470020FCE7000089
:102AC000080801400448006800F0100008B901201F
:102AD00070470020FCE70000080C01400448006833
:102AE00000F0200008B9012070470020FCE700003A
:102AF000080C01400448006800F4806008B9012017
:102B000070470020FCE70000080C01400448006802
:102B100000F4805008B9012070470020FCE7000055
:102B2000080C01400448006800F4004008B9012086
:102B300070470020FCE700000808014004480068D6
:102B400000F4006008B9012070470020FCE7000095
:102B5000080C014010B5FFF791FF20B1FFF7A6FF69
:102B600008B1012010BD0020FCE7000010B5154899
:102B7000002100F0F9F800210E2000F0F3F9002107
:102B80000F2000F0EFF90C2000F0D4F840F003041F
:102B900021460C2000F0E6F90421262000F0E2F99D
:102BA000142000F0BFF90B2000F08AF9064800F06D
:102BB00001F9342000F0AFF900F012F800F02CF821
:102BC00010BD0000400ECF1948E8010010B51320D9
:102BD00000F0B0F801490978401A10BD3800002013
:102BE00010B51E2000F0A6F840F0040421461E2077
:102BF00000F0B8F910BD000010B5002005490870BC
:102C00001D2000F097F800F0FE0421461D2000F082
:102C1000A9F910BD3900002010B58121012000F074
:102C2000A1F910BD10B50120054908701D2000F064
:102C300081F840F0010421461D2000F093F910BDF9
:102C40003900002070B51A2000F074F806460848D4
:102C5000007808F0FEF904464FF00042054B08F0FA
:102C60000BFA01D2A42000E09D20301A40B270BDC2
:102C70003A00002050DEC9412DE9F041044600260B
:102C8000122000F057F80546002C06DDFFF7CAFFBA
:102C9000E1B2222000F066F901E0FFF7ADFFE9B2F2
:102CA000122000F05FF905F04000E0B105F02000CF
:102CB000C8B90020144908701448007820B12220B7
:102CC00000F038F8064603E0132000F033F806461B
:102CD000102000F02FF8074639460D2000F042F989
:102CE000FFF79AFF0CE0012000F024F8862807D0B7
:102CF00000210D2000F036F98621012000F032F984
:102D0000F0B2BDE8F081000038000020390000205A
:102D100010B5FFF75BFF10B94FF0FF3010BD04484E
:102D20000078401C02490870002000F003F8F5E725
:102D30003800002070B504464FF4807009490860DF
:102D400004F07F01012004F007FE0021012004F0BF
:102D500003FE05464FF480700249091F08602846AB
:102D600070BD0000140801402DE9F04706460F46EB
:102D7000F80440EA56314FEAC6480D4A002340465F
:102D8000FDF715FB04460D46200C40EA0540C1B294
:102D9000062000F0E7F8200A40EA0560C1B20720EB
:102DA00000F0E0F8E1B2082000F0DCF8BDE8F087C0
:102DB0000048E8012DE9F0410546284608F032F9BF
:102DC00006460022354B08F057F901D8002458E098
:102DD000284608F027F906460022314B08F04CF946
:102DE00001D801244DE0284608F01CF906460022CF
:102DF0002C4B08F041F901D8022442E0284608F0A3
:102E000011F906460022284B08F036F901D80324B0
:102E100037E0284608F006F906460022234B08F062
:102E20002BF901D804242CE0284608F0FBF80646CC
:102E300000221F4B08F020F901D8052421E0284684
:102E400008F0F0F8064600221A4B08F015F901D8F0
:102E5000062416E0284608F0E5F806460022164B40
:102E600008F00AF901D807240BE0284608F0DAF840
:102E700006460022114B08F0FFF801D8082400E0B4
:102E800009241D20FFF756FF64F31F10C6B2314618
:102E90001D2000F067F8BDE8F08100000078BE401A
:102EA0000050C4400078CE400050D4408084DE40C2
:102EB000805CE4408084EE408084FE4080840E414B
:102EC00070B50446062C01DA062402E00C2C00DD65
:102ED0000C24062C08D1C521312000F043F80C2128
:102EE000372000F03FF807E0C321312000F03AF826
:102EF0000A21372000F036F81E20FFF71BFF00F0F4
:102F00000F00F02101EA041140EA010529461E20C4
:102F100000F028F870BD10B50446E1B2392000F089
:102F200021F810BD10B50446052C01DA052402E095
:102F3000142C00DD14243F210B2000F013F887210E
:102F40004D2000F00FF8601FC0B240F08001092052
:102F500000F008F810BD10B58021012000F002F843
:102F600010BD000070B504460D464FF4807009494D
:102F7000086044F08001012004F0EEFC064629467A
:102F8000012004F0E9FC4FF480700249091F086039
:102F9000304670BD1408014000BFFEE738B5002080
:102FA00005F036F94FF4FC6080231A4600210090AA
:102FB000084605F0AAF84FF4FC607E231A4601216A
:102FC0000090084605F0A1F84FF4FC637E227221C0
:102FD000002005F066F8012005F008FA4FF4FC60C7
:102FE00005F0F0F90CA20821022005F0B8F84FF422
:102FF000FC637E221621002005F053F80BA27521F8
:10300000042005F0ACF80A4804680AA3224675219A
:10301000162005F06AF838BD202020204849544287
:1030200020323031382044584220200049443A00B0
:10303000E8F7FF1F253038580000000010B5FFF7F3
:10304000ADFF01F099FD01F0A1FD01F0A9FD01F036
:10305000B1FD01F0B9FD01F0C1FD01F0C9FD01F0C4
:10306000D1FD01F0D9FD01F0E1FD01F0E9FD01F034
:10307000F1FD01F0F9FD01F001FE01F009FE01F0A2
:1030800011FE01F019FE01F021FE01F029FE01F010
:1030900031FE01F039FE01F041FE01F049FE01F080
:1030A00051FE01F059FE01F061FE01F069FE01F0F0
:1030B00071FE01F079FE01F081FE01F089FE01F060
:1030C00091FE01F099FE01F0A1FE01F0A9FE01F0D0
:1030D000B1FE01F0B9FE01F0C1FE01F0C9FE01F040
:1030E000D1FE01F0D9FE01F0E1FE01F0E9FE01F0B0
:1030F000F1FE01F0F9FE01F001FF01F009FF01F01E
:1031000011FF01F019FF01F021FF01F029FF01F08B
:1031100031FF01F039FF01F041FF01F049FF01F0FB
:1031200051FF01F059FF01F061FF01F069FF01F06B
:1031300071FF01F079FF01F081FF01F089FF01F0DB
:1031400091FF01F099FF01F0A1FF01F0A9FF01F04B
:10315000B1FF01F0B9FF01F0C1FF01F0C9FF01F0BB
:10316000D1FF01F0D9FF01F0E1FF01F0E9FF01F02B
:10317000F1FF01F0F9FF02F001F802F009F802F0A6
:1031800011F802F019F802F021F802F029F802F023
:1031900031F802F039F802F041F802F049F802F093
:1031A00051F802F059F802F061F802F069F802F003
:1031B00071F80021044802F011FA034802F0BBFA4A
:1031C000014802F0DCFA10BD1C16002010B50248C0
:1031D00002F03FFB10BD00001C16002010B50C488B
:1031E0000078A0B10B48007888B9012005F0FEF8FE
:1031F00000214FF4FC6005F0EFF87521582005F030
:10320000CBF8054890F9001004A005F03FF810BD78
:1032100001000020400C00200000002025346464E0
:10322000420000007047000070B5002100230F220B
:10323000C47804B3154C246804F4E064C4F5E06475
:10324000210AC1F10403CA40447804FA03F18478E6
:103250001440214309010E4C0678A155047804F06E
:103260001F050124AC4005786D11AD0005F1E02586
:10327000C5F8004109E0047804F01F050124AC40C2
:10328000044D0678761145F8264070BD0CED00E03F
:1032900000E400E080E100E002490143024A1160DD
:1032A000704700000000FA050CED00E070470000D8
:1032B00029B1064A52690243044B5A6104E0034AA9
:1032C00052698243014B5A6170470000001002406E
:1032D00029B1064AD2690243044BDA6104E0034A89
:1032E000D2698243014BDA6170470000001002404E
:1032F00029B1064A12690243044B1A6104E0034AE9
:1033000012698243014B1A617047000000100240AD
:1033100029B1064A92690243044B9A6104E0034AC8
:1033200092698243014B9A6170470000001002408D
:1033300029B1064AD2680243044BDA6004E0034A2A
:10334000D2688243014BDA607047000000100240EF
:1033500030B500210022002400232D4D6D6805F0BA
:103360000C0121B1042905D0082923D105E0294DFC
:10337000056022E0274D05601FE0254D6D6805F4CE
:103380007012234D6D6805F48034022505EB9242DE
:103390001CB9214D554305600BE01D4D6D6805F4CA
:1033A00000351DB11C4D5543056002E0194D5543D4
:1033B000056002E0174D056000BF00BF144D6D6849
:1033C00005F0F0010909154D6B5C0568DD404560AD
:1033D0000F4D6D6805F4E061090A104D6B5C45689E
:1033E000DD4085600A4D6D6805F46051C90A0B4DDA
:1033F0006B5C4568DD40C560054D6D6805F4404176
:10340000890B074D6B5CC568B5FBF3F5056130BDF5
:103410000010024000127A0000093D00440C002018
:10342000540C002010B5044600210848FEF7CCFEDD
:103430004FF40030FEF7BAFEA1B20448FEF794FF45
:1034400001210248FEF7C0FE10BD000058000240F6
:1034500000B591B001210846FFF72AFF012108209D
:10346000FFF756FF01218803FFF732FF2C48FEF7D4
:10347000B7FE2C4800902C48006801901020029064
:103480000020039004908020059000200690079073
:1034900008900A90099069462148FEF747FF4FF4CB
:1034A0000040ADF8400018208DF8430003208DF84F
:1034B000420010A91D48FFF734F91A480C3800F0F3
:1034C000EFFB4FF44040ADF82C004FF48270ADF8A4
:1034D0002E000020ADF83000ADF83200ADF8340019
:1034E0004FF40070ADF836001820ADF83800002019
:1034F000ADF83A000720ADF83C000BA909480C389C
:1035000000F008FC0122022106480C3800F0BEFB46
:10351000012104480C3800F0ADFB11B000BD0000E3
:10352000580002400C38004044000020000C0140CC
:103530000C4A1268501C00220DE00B4911F8013BA7
:1035400000F8013B11F8013B00F8013B11F8013B89
:1035500000F8013B521C054B1B8803EB43039342CD
:10356000EBDC704744000020C4BD00083C00002094
:1035700010B504461648006818B115480068FCF7F5
:10358000EFFE04EBC400801C124908800988480043
:10359000FCF7B7FE0E4908600846006890B10E4877
:1035A0000480084600680D4908600020096808701A
:1035B0000A490968074A1288114401F8010CFFF70B
:1035C000B7FF04E00020034908800349088010BDCC
:1035D000480000203E0000203C0000204400002065
:1035E00008B501210820FFF793FE03208DF80200A3
:1035F00010208DF803000420ADF800006946024851
:10360000FFF78FF808BD0000000C014010B50C4812
:10361000007810B9FFF7AAF90FE003F0E5FA0949BD
:10362000087008460078042803D100F0DBF8002079
:1036300010BD00F0D7F80120FAE70120F8E70000FC
:10364000400C00203F0C002010B5644A117B10781C
:1036500000F072FF62480078132829D100240AE0A4
:103660005E49601C085C085501F10C00611C415C5E
:103670000155601CC4B25948007E401EA042EFDCD8
:103680005648007E801E5549085C401EC1B2534812
:10369000007E401E514A11541046007E801E02F1E9
:1036A0000C01085C0C39097E491E0C32505485E02F
:1036B0004B480078162829D100240AE04749601CAD
:1036C000085C085501F10C00611C415C0155601C4F
:1036D000C4B24248007E401EA042EFDC3F48007E5C
:1036E000801E3E49085C401CC1B23C48007E401E22
:1036F0003A4A11541046007E801E02F10C01085C0B
:103700000C39097E491E0C32505457E03448007879
:103710000D2827D100240AE03049601C085C0855B8
:1037200001F10C00611C415C0155601CC4B22B48C6
:10373000007E401EA042EFDC2848007E801E274904
:10374000085C097E491E254A50541046007E801EA2
:1037500002F10C01085C401EC2B22048007E401EEF
:103760000A542BE01E480078102827D100240AE0D4
:103770001A49601C085C085501F10C00611C415C91
:103780000155601CC4B21548007E401EA042EFDC0B
:103790001248007E801E1149085C097E491E0F4AAE
:1037A00050541046007E801E02F10C01085C401C43
:1037B000C2B20A48017E491E0C304254002408E07F
:1037C000064A0C32115D0C3A105D00F0C9FE601C17
:1037D000C4B20248007EA042F2DC10BD20230020CB
:1037E0003E0C002070B50024002503F0D7FAFE49F6
:1037F000B0FBF1F201FB120085B22846FDF7C4F8D8
:10380000FA480078162846D1F9480078132842D0A3
:10381000F84A117B107800F08FFE00BF0AE0F549EE
:10382000601C085C085501F10C00611C415C0155ED
:10383000601CC4B2EF48007E401EA042EFDCED48A1
:10384000007E801EEB49085C401CC1B2E948007E46
:10385000401EE84A11541046007E801E02F10C0101
:10386000085C0C39097E491E0C325054002408E0D3
:10387000E04A0C32115D0C3A105D00F071FE601CE4
:10388000C4B2DC48007EA042F2DC1620D8490870A1
:103890000020D6490870D5480078132846D1D4486E
:1038A0000078162842D0D34A117B107800F044FEED
:1038B00000240AE0CF49601C085C085501F10C00A7
:1038C000611C415C0155601CC4B2CA48007E401EA8
:1038D000A042EFDCC748007E801EC649085C401E3F
:1038E000C1B2C448007E401EC24A11541046007E38
:1038F000801E02F10C01085C0C39097E491E0C3255
:103900005054002408E0BB4A0C32115D0C3A105DA3
:1039100000F026FE601CC4B2B648007EA042F2DC75
:103920001320B34908700020B0490870AF480078F0
:103930000D2844D1AE480078102840D0AD4A117B04
:10394000107800F0F9FD00240AE0AA49601C085C28
:10395000085501F10C00611C415C0155601CC4B2AA
:10396000A448007E401EA042EFDCA248007E801EDC
:10397000A049085C097E491E9E4A50541046007EAC
:10398000801E02F10C01085C401EC2B29948007E04
:10399000401E0A54002408E0964A0C32115D0C3A8D
:1039A000105D00F0DDFD601CC4B29248007EA042B4
:1039B000F2DC0D208E49087000208C4908708B487D
:1039C0000078102844D18A4800780D2840D0894AD0
:1039D000117B107800F0B0FD00240AE08549601CDE
:1039E000085C085501F10C00611C415C0155601C2C
:1039F000C4B28048007E401EA042EFDC7D48007EBD
:103A0000801E7C49085C097E491E7A4A5054104643
:103A1000007E801E02F10C01085C401CC2B2754899
:103A2000007E401E0A54002408E0724A0C32115DE8
:103A30000C3A105D00F094FD601CC4B26D48007E2D
:103A4000A042F2DC10206A49087000206749087023
:103A500066480078042808D10020674908700420CF
:103A6000634908700020614908706248007E401E6A
:103A70006049085C002812DD0846007E401E085C94
:103A80001F280CDA0846007E401E0C31085C032813
:103A900005DD5848007E401E085C1F2802DB01201F
:103AA00054494876032411E05248005D5149097891
:103AB000884209D14F480C30005D4E49097B88424D
:103AC00002D101204B494876601CC4B24948007EAF
:103AD000A042E9DC4748407E012801D1FEF7F8FC0E
:103AE0004448007E0C2801D1FEF742FC4148007E8C
:103AF000401E4049085C41490978884233D13D481D
:103B0000007E401E3B490C31085C3C4949788842A4
:103B100029D13848007E401C36490876374801785C
:103B20003448007E401E334A1154344842783148AC
:103B3000007E401E2F490C310A542E48807E0A30E8
:103B40000C39887600214FF4784004F045FC0321BD
:103B5000642004F021FC2748817E29A004F096FB14
:103B60000120264988702548807820B9234A517859
:103B7000107800F0F5FC21488078012844D141E01C
:103B8000FCF784FB1C2190FBF1F201FB1200401CAE
:103B90001A490870FCF77AFB1C2190FBF1F201FB3B
:103BA0001200C01C1549487000240FE0134800782B
:103BB0001049095D884207D1104801780D480C3042
:103BC000005D814200D105E0601CC4B20948007E5E
:103BD000A042EBDC00BF0748007EA04212D10020CB
:103BE000064988700FE00000A08601003F0C00200D
:103BF0003E0C002020230020400C0020410C00201F
:103C000025640000BCE700BFFFF71EFD0449C97E24
:103C100001EB8101C922A2EB410002F033FF70BD2C
:103C2000202300200146012901D1104870470229B4
:103C300001D10F48FAE7032901D10020F6E7042952
:103C400001D10020F2E7052901D10020EEE7062985
:103C500001D10020EAE7072901D10020E6E7082981
:103C600001D10020E2E70020E0E700007415002009
:103C7000A815002021B1028842F04002028004E031
:103C800002884FF6BF731A40028070471AB18388CA
:103C90000B43838002E083888B438380704700005E
:103CA00010B504461148844208D101218014FFF761
:103CB0003FFB0021A014FFF73BFB16E00C488442B9
:103CC00008D101210014FFF713FB00212014FFF796
:103CD0000FFB0AE00748844207D10121C013FFF718
:103CE00007FB0021E013FFF703FB10BD003001408C
:103CF00000380040003C00400246002013890B4081
:103D00000BB1012000E00020704701468889704710
:103D10008181704710B50022028802F441520B885D
:103D20004C8823438C882343CC8823430C8923432A
:103D30004C8923438C892343CC8923431A43028033
:103D4000838B4FF2FF74234083830B8A038210BD61
:103D5000012843D10121454A126811704449434A60
:103D6000126851601021414A1268118141493F4A4D
:103D70001268D16180213D4A126811843D493B4A55
:103D8000126851614021394A126811833949374A12
:103D90001268D1602021354A126811820021334A0D
:103DA00012685184314A1268918402212F4A1268A4
:103DB000D18401212D4A1268118500212B4A1268F5
:103DC00051854FF48271294A126891850021274A52
:103DD0001268D185254A126882F83010022843D132
:103DE0000221254A126811702449234A1268516041
:103DF0000021214A1268118121491F4A1268D161AC
:103E000081031D4A126811841D491B4A12685161C1
:103E10004103194A126811831949174A1268D1607F
:103E20000103154A126811820021134A1268518455
:103E3000114A1268918402210F4A1268D18401212B
:103E40000D4A1268118500210B4A126851854FF402
:103E50008271094A126891850021074A1268D1854A
:103E6000054A126882F830107047000030000020C8
:103E700000300140000801403400002000380040BC
:103E8000000C014010B50446214602A0FCF718FBC7
:103E9000002010BD3C3C2D5350492D4552524F52ED
:103EA0002D3E3E2053504920B5C8B4FDB3ACCAB135
:103EB000216572726F72436F6465203D2025640A2C
:103EC00000000000704710B500F002F810BD0000BF
:103ED0000CB50020019000903348006840F4803019
:103EE0003149086000BF3048006800F4003000909D
:103EF0000198401C0190009818B90198B0F5A06F86
:103F0000F1D12948006800F4003010B10120009080
:103F100001E0002000900098012843D12348006868
:103F200040F01000214908600846006820F00300B6
:103F300008600846006840F0020008601A484068BF
:103F4000194948600846406848600846406840F49F
:103F5000806048600846406820F47C10486008464D
:103F6000406840F4E81048600846006840F08070FF
:103F7000086000BF0C48006800F000700028F9D00D
:103F80000948406820F00300074948600846406837
:103F900040F00200486000BF0348406800F00C0099
:103FA0000828F9D10CBD000000100240002002409A
:103FB00010B500F001F810BD10B51B48006840B105
:103FC00019480068401E1849086010B901201749B7
:103FD0000870002408E004EB4401154A02EB81005C
:103FE00003F01AFE601CC4B2042CF4DB1148006814
:103FF000401C10490860084600686FF00041884284
:1040000002D100200B49086003F0A4FC0A480078A4
:10401000401CC0B2084908700A2803DB0020087061
:1040200003F094FC10BD00000400002008000020F4
:104030006C0C00200C0000202000002010B513485C
:10404000006840F0010011490860084640681049C6
:1040500008400E494860084600680E4908400B4970
:1040600008600846006820F4802008600846406820
:1040700020F4FE0048604FF41F008860FFF723FF24
:104080004FF000600449086010BD000000100240BD
:104090000000FFF8FFFFF6FE08ED00E010B502217A
:1040A000214800F075F858B102211F4800F052F87D
:1040B000002202211C4800F07CF81C480068804760
:1040C0000421194800F064F858B10421164800F0A2
:1040D00041F800220421144800F06BF814480068ED
:1040E00080470821104800F053F858B108210E48C5
:1040F00000F030F8002208210B4800F05AF80D4873
:10410000006880471021084800F042F858B110219B
:10411000054800F01FF800221021034800F049F87C
:1041200005480068804710BD0004004010000020D2
:1041300014000020180000201C00002021B102887B
:1041400042F08002028004E002884FF67F731A403A
:1041500002807047CA430282704721B1028842F050
:104160000102028004E002884FF6FE731A400280CA
:10417000704731B1B0F8442042F40042A0F8442026
:1041800005E0B0F84420C2F30E02A0F844207047C6
:1041900030B50246002000230024158A05EA0103F9
:1041A000958905EA010413B10CB1012000E000205B
:1041B00030BD1AB183890B43838102E083898B432D
:1041C0008381704770B5002400220023058C4FF6D0
:1041D000FE7635400584028C8388048B4FF68F75FC
:1041E0002C40B51E2C400D882C43751E2A400D898D
:1041F0002A434D882A43144DA8420BD0134DA842A0
:1042000008D0134DA84205D0124DA84202D0124D3D
:10421000A84213D14FF6F7752A404D892A434FF62D
:10422000FB752A408D882A434FF6FF652B404FF6D9
:10423000FF552B408D892B43CD892B4383800483ED
:10424000CD888586028470BD002C01400034014079
:104250000040014000440140004801400A4600215E
:10426000018B4FF6F773194011430183704700002B
:1042700070B5002400220023058C4FF6EF76354000
:104280000584028C8388048B48F6FF752C404FF61A
:10429000FF452C400D884FF6FF7606EA05252C4396
:1042A0004FF6DF752A400D8906EA05152A434D8829
:1042B00006EA05152A43154DA84202D0144DA8421E
:1042C0001DD14FF67F752A404D894FF6FF7606EADD
:1042D00005152A434FF6BF752A408D8806EA051555
:1042E0002A434FF6FF352B404FF2FF752B408D8947
:1042F00006EA85052B43CD8906EA85052B43838095
:104300000483CD880587028470BD0000002C014025
:10431000003401400A460021018B4FF2FF7319401F
:104320004FF6FF7303EA022319430183704700002D
:1043300070B5002400220023058C4FF6FF6635403F
:104340000584028C8388848B4FF68F752C404FF642
:10435000FC752C400D882C434FF6FF552A400D89E3
:104360004FF6FF7606EA05252A434D8806EA05251D
:104370002A43154DA84202D0144DA8421DD14FF238
:10438000FF752A404D894FF6FF7606EA05252A4338
:104390004FF6FF352A408D8806EA05252A434EF65A
:1043A000FF752B404DF6FF752B408D8906EA0515EC
:1043B0002B43CD8906EA05152B4383808483CD8862
:1043C0008587028470BD0000002C0140003401404C
:1043D0000A460021818B4FF6F77319401143818300
:1043E0007047000070B5002200230024058C4EF6B3
:1043F000FF7635400584038C8488828B48F6FF75F0
:104400002A404FF6FF452A400D884FF6FF7606EA10
:1044100005252A434DF6FF752B400D8906EA053523
:104420002B434D8806EA05352B430B4DA84202D09D
:104430000A4DA84208D14BF6FF752C408D894FF6E6
:10444000FF7606EA85152C4384808283CD88A0F808
:104450004050038470BD0000002C01400034014036
:104460000A460021818B4FF2FF7319404FF6FF730C
:1044700003EA0223194381837047002101804180B0
:104480008180C180018141818181C18170478187A3
:1044900070470000002202881D4B98420ED01D4B31
:1044A00098420BD0B0F1804F08D01B4B984205D0FA
:1044B0001A4B984202D01A4B984204D14FF68F7390
:1044C0001A404B881A43174B984207D0164B984214
:1044D00004D04FF6FF431A40CB881A4302808B88E2
:1044E00083850B8803850A4B98420BD0094B984271
:1044F00008D00E4B984205D00D4B984202D00D4B80
:10450000984201D10B7A0386012383827047000011
:10451000002C01400034014000040040000800402D
:10452000000C00400010004000140040004001401A
:104530000044014000480140F8B504460D46002003
:10454000042606EB850633B2042606EB840632B257
:10455000AE0031B2A600009030B203F03EFEF8BDCE
:10456000F8B504460D464FF47840042606EB850660
:1045700033B2042606EB840632B2AE0031B2A60096
:10458000009030B203F029FEF8BD000010B50248DB
:1045900000F0E4F810BD00004C0D002001F40072A2
:1045A000B2F5007F00D100BFCA430280704721B13D
:1045B000828942F40052828104E082894DF6FF73C1
:1045C0001A408281704770B50246002400230025FE
:1045D000002040F66A16B14200D100BFC1F3421577
:1045E00001F01F03012606FA03F3012D02D196897B
:1045F000334006E0022D02D1168A334001E0968A4C
:1046000033400C12012606FA04F41688344013B124
:104610000CB1012000E0002070BDF0B5034600247D
:1046200000260025002040F66A17B94200D100BFDD
:104630001846C1F3421401F01F06012707FA06F5D8
:10464000012C01D10C3004E0022C01D1103000E02B
:1046500014301AB107682F43076002E00768AF43C0
:104660000760F0BD2DE9F04786B005460E460024F0
:10467000A24600BFA1460027B08900B100BF2F4667
:104680002C8A4CF6FF700440F08804432C82AC89DD
:104690004EF6F3100440B08831890843718908430D
:1046A0000443AC81AC8A4FF6FF400440B089044318
:1046B000AC8201A8FEF74CFE1F48874202D1DDF80C
:1046C00010A001E0DDF80CA0A88900F4004040B182
:1046D0000AEBCA0000EB0A1031684900B0FBF1F8A0
:1046E00007E00AEBCA0000EB0A1031688900B0FB52
:1046F000F1F86420B8FBF0F004012009642101FB0B
:104700001089A88900F4004040B1322000EBC900B4
:10471000B0FBF1F000F00700044308E0322000EBAA
:1047200009106421B0FBF1F000F00F0004432C816C
:1047300006B0BDE8F08700000038014001468888D7
:10474000C0F308007047C1F3080282807047000080
:104750000148C069704700000010024070B504466F
:1047600040F225512068FFF72EFFE0B12068FFF7E7
:10477000E5FFC5B2E18AA0684554E08A401C80B2DA
:10478000E082E189884201DB0020E082608BE189E0
:10479000884202DA608B401C6083606A10B1284650
:1047A000616A884700BF40F227712068FFF70BFF5E
:1047B00008B3A08A60B9002240F227712068FFF791
:1047C0002CFF012240F226612068FFF726FF37E028
:1047D000638A6268D15C2068FFF7B5FF608A401C7D
:1047E00080B26082A189884201DB00206082A08AB9
:1047F000401EA08224E040F226612068FFF7E3FE1D
:10480000F0B1A08A50B9002240F226612068FFF77B
:1048100004FF206AA0B1206A804711E0638A6268C1
:10482000D15C2068FFF78FFF608A401C80B26082F5
:10483000A189884201DB00206082A08A401EA082FC
:1048400070BDF8B504460E461746002529E00EE077
:10485000012001F08AFAA08A0090002001F085FA78
:10486000A089BDF80010884200DD01E000BFEFE73D
:1048700000BF705D228A61688854012001F075FADA
:10488000208A401C80B22082A189884201DB00205E
:104890002082A08A401CA082002001F066FA681CD9
:1048A00085B2BD42D3DB012240F227712068FFF7B9
:1048B000B4FEF8BD0A480B4908600B4848600B4835
:1048C00088604FF480608881C88100200882488217
:1048D000C882088348838882C8610862486270473A
:1048E000003801404C0D0020740D00207411002090
:1048F00000BFFEE77047000010B5154800F0DCFF70
:1049000002F072F90446012C03D1114800F0C6FFF1
:104910001CE00D2C03D10E4800F0A4FF16E0102C73
:1049200003D10B4800F0A5FF10E0042C03D1084888
:1049300000F0ADFF0AE0132C03D1054800F0A0FF02
:1049400004E0162C02D1024800F0AFFF10BD0000B9
:104950001C1600202DE9F04F87B0012003F046FD22
:1049600000214FF4FC6003F037FD7F4800F0C4FEE7
:1049700082460AF1060000F0FF0B00247A4800F09E
:10498000B5FE062801DB062002E0774800F0AEFE07
:104990000546754800F0AAFE0646734800F028FF59
:1049A00007460024704800F0A7FE82466F48007852
:1049B000A84215D06D48057000205B230422172102
:1049C00000907A2003F0F3FB0020009005EB4500F7
:1049D000800000F11F0171237D22062003F0FDFB02
:1049E000614800F089FE80465F4800F0C4FC414603
:1049F000019001F07EF98146B9F1000F7BD000BF34
:104A0000484601F03EF9002876D0484601F042F9C8
:104A1000002872D0484601F04FF9FF2809DA4846CD
:104A200001F04AF9524951F82080414602A8FBF7AB
:104A3000C9FF4D4800F0D6FEA0425FD10020009093
:104A400004EB4400800000F11F014FF4784349A2B9
:104A5000062003F013FB0020009004EB44008000CC
:104A600000F11F014FF4784302AA0E2003F006FB69
:104A7000AE4265DD00BF00205B23032217210090BA
:104A80007B2003F094FB4FF4FC635B2217217A2018
:104A900003F019FB701B00F0FF0808F106005B2112
:104AA00091FBF0F000F0FF084FB94FF4FC60434673
:104AB0000322172100907B2003F079FB1AE0701E7F
:104AC000B8420BD14FF4FC600090C8F1720001466F
:104AD000434603227B2003F06AFB0BE04FF4FC60AB
:104AE000009008FB07F0183001B2434603227B20F8
:104AF00003F05DFB24E033E028E019E000200090A3
:104B000004EB4400800000F11F01002319A20620DD
:104B100003F0B4FA0020009004EB4400800000F1A0
:104B20001F014FF4FC6302AA0E2003F0A7FA07E06E
:104B3000484601F0B8F818B12146484601F0D0F8CF
:104B40000AF1010000F0FF0A601CC4B201214846CE
:104B500001F080F8B0F1000902D0DA45FFF650AF5D
:104B600007B0BDE8F08F00001C1600201C040020D8
:104B7000A80A00203E00000010B50249024801F0DA
:104B80009EF810BD741600200416002010B50249CE
:104B9000024801F094F810BD8C1600200416002085
:104BA00010B50249024801F08AF810BDA416002091
:104BB0000416002010B50249024801F080F810BD2B
:104BC000BC1600200416002010B50249024801F06E
:104BD00076F810BDD41600200416002010B5024946
:104BE000024801F06CF810BDEC16002004160020FD
:104BF00010B50249024801F062F810BD0417002008
:104C00000416002010B50249024801F058F810BD02
:104C10001C1700200417002010B50249024801F0BB
:104C20004EF810BD341700200417002010B50249BB
:104C3000024801F044F810BD4C1700200417002072
:104C400010B50249024801F03AF810BD641700207F
:104C50000417002010B50249024801F030F810BDD9
:104C60007C1700200417002010B50249024801F00B
:104C700026F810BD941700200417002010B5024933
:104C8000024801F01CF810BDAC170020741600207B
:104C900010B50249024801F012F810BDC4170020F7
:104CA0007416002010B50249024801F008F810BD42
:104CB000DC1700208C16002010B50249024800F0D5
:104CC000FEFF10BDF41700208C16002010B502491D
:104CD000024800F0F4FF10BD0C180020AC170020B3
:104CE00010B50249024800F0EAFF10BD2418002068
:104CF000AC17002010B50249024800F0E0FF10BDDB
:104D00003C180020AC17002010B50249024800F002
:104D1000D6FF10BD54180020AC17002010B5024972
:104D2000024800F0CCFF10BD6C180020AC1700202A
:104D300010B50249024800F0C2FF10BD84180020DF
:104D4000AC17002010B50249024800F0B8FF10BDB2
:104D50009C180020AC17002010B50249024800F052
:104D6000AEFF10BDB4180020AC17002010B50249EA
:104D7000024800F0A4FF10BDCC180020AC170020A2
:104D800010B50249024800F09AFF10BDE418002057
:104D9000AC17002010B50249024800F090FF10BD8A
:104DA000FC180020AC17002010B50249024800F0A2
:104DB00086FF10BD14190020AC17002010B5024961
:104DC000024800F07CFF10BD2C190020AC17002019
:104DD00010B50249024800F072FF10BD44190020CE
:104DE000AC17002010B50249024800F068FF10BD62
:104DF0005C190020AC17002010B50249024800F0F1
:104E00005EFF10BD74190020AC17002010B50249D8
:104E1000024800F054FF10BD8C190020C417002078
:104E200010B50249024800F04AFF10BDA419002045
:104E3000C417002010B50249024800F040FF10BD21
:104E4000BC190020C417002010B50249024800F028
:104E500036FF10BDD4190020C417002010B5024938
:104E6000024800F02CFF10BDEC190020C4170020F0
:104E700010B50249024800F022FF10BD041A0020BC
:104E8000C417002010B50249024800F018FF10BDF9
:104E90001C1A0020C417002010B50249024800F077
:104EA0000EFF10BD341A0020C417002010B50249AF
:104EB000024800F004FF10BD4C1A0020C417002067
:104EC00010B50249024800F0FAFE10BD641A002035
:104ED000C417002010B50249024800F0F0FE10BDD2
:104EE0007C1A0020C417002010B50249024800F0C7
:104EF000E6FE10BD941A0020C417002010B5024928
:104F0000024800F0DCFE10BDAC1A0020C4170020DF
:104F100010B50249024800F0D2FE10BDC41A0020AC
:104F2000C417002010B50249024800F0C8FE10BDA9
:104F3000DC1A0020C417002010B50249024800F016
:104F4000BEFE10BDF41A0020C417002010B502499F
:104F5000024800F0B4FE10BD0C1B0020C417002056
:104F600010B50249024800F0AAFE10BD241B002023
:104F7000DC17002010B50249024800F0A0FE10BD69
:104F80003C1B0020DC17002010B50249024800F04D
:104F900096FE10BD541B0020DC17002010B50249FE
:104FA000024800F08CFE10BD6C1B0020DC170020B6
:104FB00010B50249024800F082FE10BD841B00209B
:104FC000DC17002010B50249024800F078FE10BD41
:104FD0009C1B0020DC17002010B50249024800F09D
:104FE0006EFE10BDB41B0020DC17002010B5024976
:104FF000024800F064FE10BDCC1B0020DC1700202E
:1050000010B50249024800F05AFE10BDE41B002012
:10501000DC17002010B50249024800F050FE10BD18
:10502000FC1B0020DC17002010B50249024800F0EC
:1050300046FE10BD141C0020DC17002010B50249EC
:10504000024800F03CFE10BD2C1C0020DC170020A4
:1050500010B50249024800F032FE10BD441C002089
:10506000DC17002010B50249024800F028FE10BDF0
:105070005C1C0020DC17002010B50249024800F03B
:105080001EFE10BD741C0020DC17002010B5024964
:10509000024800F014FE10BD8C1C0020DC1700201C
:1050A00010B50249024800F00AFE10BDA41C002001
:1050B000F417002010B50249024800F000FE10BDB0
:1050C000BC1C0020F417002010B50249024800F073
:1050D000F6FD10BDD41C0020F417002010B50249C5
:1050E000024800F0ECFD10BDEC1C0020F41700207D
:1050F00010B50249024800F0E2FD10BD041D002079
:10510000F417002010B50249024800F0D8FD10BD88
:105110001C1D0020F417002010B50249024800F0C1
:10512000CEFD10BD341D0020F417002010B502493B
:10513000024800F0C4FD10BD4C1D0020F4170020F3
:1051400010B50249024800F0BAFD10BD641D0020F0
:10515000F417002010B50249024800F0B0FD10BD60
:105160007C1D0020F417002010B50249024800F011
:10517000A6FD10BD941D0020F417002010B50249B3
:10518000024800F09CFD10BDAC1D0020F41700206B
:1051900010B50249024800F092FD10BDC41D002068
:1051A000F417002010B50249024800F088FD10BD38
:1051B000DC1D0020F417002010B50249024800F061
:1051C0007EFD10BDF41D0020F417002010B502492B
:1051D000024800F074FD10BD0C1E0020F4170020E2
:1051E00010B50249024800F06AFD10BD241E0020DF
:1051F000A416002010B50249024800F060FD10BD61
:105200003C1E0020A416002010B50249024800F000
:1052100056FD10BD541E0020A416002010B50249F2
:10522000024800F04CFD10BD6C1E0020A4160020AA
:1052300010B50249024800F042FD10BD841E002056
:10524000A416002010B50249024800F038FD10BD38
:105250009C1E0020A416002010B50249024800F050
:105260002EFD10BDB41E0020A416002010B502496A
:10527000024800F024FD10BDCC1E0020A416002022
:1052800010B50249024800F01AFD10BDE41E0020CE
:10529000A416002010B50249024800F010FD10BD10
:1052A000FC1E0020A4160020014691F84200C0F325
:1052B000C00008B1012070470020FCE790F84210C0
:1052C00021F0080180F84210704710B5044694F8A8
:1052D0004300C0F3800008B96069804710BD0146F3
:1052E000886840B191F8440000F0010008B1012045
:1052F00070470020FCE791F8440020F0010081F89D
:1053000044000020F4E710B50446A06818B1A06876
:1053100000F0D2FC10BDFF20FCE710B50446A068E9
:10532000A0B194F84400C0F3400068B994F8440078
:1053300040F0020084F844002046FFF7C6FF2046F4
:1053400000F015F8012010BD0020FCE794F844009F
:1053500020F0020084F844000020F4E7014691F8B0
:105360004200002801DD012070470020FCE70021F9
:1053700080F84210704701464868704770B504468F
:10538000606800F0C5FC40B1606800F0C1FC0546F3
:1053900001222946204600F072F870BD2DE9F04147
:1053A0000446A068002868D1204600F02BFA94F843
:1053B00029100844C6B23146606800F09AFC0546E0
:1053C000284600F057FC50B1284600F063FC30B18D
:1053D00094F84300C0F3800008B9A5604DE028466A
:1053E00000F061FC60B194F84300C0F3800038B96C
:1053F0000021204600F0F2F8204600F09CF93CE045
:105400000021284600F075FC78B32FE0284600F014
:1054100038FC20B994F8430000F0010030B3204676
:1054200000F0F0F994F829100844C7B239466068D2
:1054300000F05FFC064600223146204600F01FF8CF
:1054400094F84300C0F3800070B92046FFF78FFF47
:10545000204600F09BF984F836000021204600F039
:10546000BDF8204600F067F906E006E00021284676
:1054700000F0F0FB051EC9D100BFBDE8F0812DE9A9
:10548000F04104460D461646656094F837000A2838
:105490004DDA16BB94F8291094F8372004F11F0058
:1054A000815494F82A1094F837200C30815400204D
:1054B00004F82A0F607B401C6073607B2A3C0A283A
:1054C00007DA606800F0F8FB94F8372004F138013F
:1054D0008854002084F8290029E094F83700002837
:1054E00025DD14F8370F401E207014F8371904F129
:1054F0002B00405C84F82A0094F8371004F11F0058
:10550000405C84F8290094F82900A17F88420EDBD2
:1055100094F82900A17F401A471C4FF0000804E0CE
:10552000204600F09BF808F10108B845F8DBBDE81B
:10553000F08110B50446A06830B194F8440040F002
:10554000400084F8440015E02046FFF710FF2434A3
:1055500054F8240C44F8200C0020E074607460714E
:10556000A071E07F243CC0F3800018B900212046E0
:1055700000F034F810BD014691F84200C0F38000FD
:1055800008B1012070470020FCE7014691F8420075
:10559000C0F3400008B1012070470020FCE701463D
:1055A00091F84200C0F3401008B10120704700207C
:1055B000FCE790F8421021F0040180F84210704797
:1055C00090F8421021F0020180F84210704790F8E4
:1055D000421021F0200180F8421070472DE9F0417F
:1055E00004460F4694F82A502946606800F081FB73
:1055F00006462EB194F8430040F0400084F8430082
:10560000204600F07DF8BDE8F08110B50446E06862
:1056100008B1E068804710BD014691F84200C0F330
:10562000001008B1012070470020FCE7014691F806
:10563000420000F0010008B1012070470020FCE7A3
:1056400090F8421021F0100180F84210704790F855
:10565000421021F0010180F84210704710B5044655
:1056600004E094F82900401E84F8290094F82900E9
:10567000002806DD94F82910606800F03AFB002845
:10568000EFD0A07F94F82A10084494F8291088429B
:105690000DDC14F82A0F401C2070607E2A3CC0F3F9
:1056A0008000D8B900212046FFF798FF16E094F853
:1056B000290094F82A1088420DDA14F82A0F401EA7
:1056C0002070607E2A3CC0F3800038B9002120465B
:1056D000FFF784FF02E0204600F012F810BD90F8BA
:1056E000441021F0080180F844107047014691F8F9
:1056F0003600401CC0B27047014691F82A0070473E
:1057000010B50446204600F041F829346073207833
:105710006178401A2073207B617B293C884203DD3D
:1057200094F8360084F8350094F8430040F02000E7
:1057300084F8430010BD10B50446A06870B194F819
:10574000440000F0010048B994F84300C0F3C000E1
:1057500020B994F84300C0F3801078B194F8440065
:10576000C0F3C00028B92046FFF7A8FD2046FFF788
:1057700020FF206980472046FFF7F9FD10BD90F813
:10578000431041F0020180F84310704770B50446A1
:1057900000250021606800F0ACFA061E11D000BFA1
:1057A000304600F06EFA20B994F8430000F0010092
:1057B00008B1681CC5B20121304600F04BFA061E44
:1057C000EED10DB9002070BD681EC0B20546FAE7E3
:1057D000826832B144308170027842F0010200F8F0
:1057E00044297047014691F835007047C1647047FD
:1057F00010B50446204600F005F894F82910084436
:10580000C0B210BD2DE9F04104460025002600215C
:10581000606800F06EFA071E18D000BF384600F02E
:1058200030FA20B994F8430000F0010010B1701C68
:10583000C6B205E094F82900B04201DB681CC5B28D
:105840000121384600F006FA071EE7D12846BDE8D8
:10585000F08110B504462046FFF7D7FE204600F041
:1058600077F810BD90F8421041F0080180F842101E
:10587000704790F8421041F0040180F842107047E0
:1058800090F8421041F0020180F84210704790F801
:10589000421041F0200180F84210704790F8421009
:1058A00041F0100180F84210704790F8421041F02A
:1058B000010180F842107047014691F84300C0F39F
:1058C000001038B991F8430040F0100081F843000F
:1058D000012070470020FCE770B506460C461546CF
:1058E00001F04EFA2168401AA84204D301F048FAA8
:1058F0002060012070BD0020FCE770B50446A06860
:1059000088B194F84400C00928B194F84510A06803
:1059100000F0E6F907E0A06800F0F7F9054629462F
:10592000A06800F0DDF970BD0146886840B191F8CB
:10593000440000F0010008B9012070470020FCE796
:1059400091F8440020F0010081F844000020F4E7C1
:1059500070B504462046FFF701FD00287ED0A06800
:1059600000287CD12046FFF757FE40B12046FFF7C4
:1059700015FD94F8430040F0080084F843002046E9
:10598000FFF792FC00283ED094F84400C0F3C0001A
:1059900088BB94F82900002808DD94F82900401EEF
:1059A00084F829002046FFF759FE1DE094F84300D3
:1059B000C0F34000C0B11E34207EE072207E14F897
:1059C0001E19401A03D5002084F82A0005E094F837
:1059D0003600A17F401A84F82A002046FFF73EFED9
:1059E00000212046FFF7FAFD2046FFF789FE2046FA
:1059F000FFF7A1FE07E0FFE700212046FFF7EEFDDD
:105A00002046FFF798FE2046FFF7B5FD40B394F817
:105A10004400C0F3C00050BB94F8290094F836103D
:105A2000884208DA94F82900401C84F829002046AE
:105A3000FFF714FE10E094F84300C0F3400058B1A3
:105A4000002084F8290084F82A002046FFF706FE8B
:105A500000212046FFF7C2FD204602E044E035E089
:105A60000CE0FFF74DFE2046FFF765FE06E0002143
:105A70002046FFF7B3FD2046FFF75DFE2046FFF707
:105A800084FD18B92046FFF7D1FD30B10021204632
:105A9000FFF7A4FD2046FFF74EFE2046FFF77FFDEF
:105AA00080B12046FFF71BFE94F83700002809DD7F
:105AB0002046FFF763FC00212046FFF78FFD2046BC
:105AC000FFF739FE2046FFF752FC0DE02046FFF7B6
:105AD00066FD48B12046FFF702FE00212046FFF791
